{
  "contractName": "ballot",
  "abi": [
    {
      "inputs": [
        {
          "internalType": "bytes32[]",
          "name": "proposalNames",
          "type": "bytes32[]"
        }
      ],
      "stateMutability": "nonpayable",
      "type": "constructor"
    },
    {
      "inputs": [],
      "name": "chairperson",
      "outputs": [
        {
          "internalType": "address",
          "name": "",
          "type": "address"
        }
      ],
      "stateMutability": "view",
      "type": "function"
    },
    {
      "inputs": [
        {
          "internalType": "uint256",
          "name": "",
          "type": "uint256"
        }
      ],
      "name": "proposals",
      "outputs": [
        {
          "internalType": "bytes32",
          "name": "name",
          "type": "bytes32"
        },
        {
          "internalType": "uint256",
          "name": "voteCount",
          "type": "uint256"
        }
      ],
      "stateMutability": "view",
      "type": "function"
    },
    {
      "inputs": [
        {
          "internalType": "address",
          "name": "",
          "type": "address"
        }
      ],
      "name": "voters",
      "outputs": [
        {
          "internalType": "uint256",
          "name": "weight",
          "type": "uint256"
        },
        {
          "internalType": "bool",
          "name": "voted",
          "type": "bool"
        },
        {
          "internalType": "address",
          "name": "delegate",
          "type": "address"
        },
        {
          "internalType": "uint256",
          "name": "vote",
          "type": "uint256"
        }
      ],
      "stateMutability": "view",
      "type": "function"
    },
    {
      "inputs": [
        {
          "internalType": "address",
          "name": "voter",
          "type": "address"
        }
      ],
      "name": "giveRightToVote",
      "outputs": [],
      "stateMutability": "nonpayable",
      "type": "function"
    },
    {
      "inputs": [
        {
          "internalType": "address",
          "name": "to",
          "type": "address"
        }
      ],
      "name": "delegate",
      "outputs": [],
      "stateMutability": "nonpayable",
      "type": "function"
    },
    {
      "inputs": [
        {
          "internalType": "uint256",
          "name": "proposal",
          "type": "uint256"
        }
      ],
      "name": "vote",
      "outputs": [],
      "stateMutability": "nonpayable",
      "type": "function"
    },
    {
      "inputs": [],
      "name": "winningProposal",
      "outputs": [
        {
          "internalType": "uint256",
          "name": "winner",
          "type": "uint256"
        }
      ],
      "stateMutability": "view",
      "type": "function"
    }
  ],
  "bytecode": "0x60806040523480156200001157600080fd5b506040516200122e3803806200122e833981810160405281019062000037919062000342565b336000806101000a81548173ffffffffffffffffffffffffffffffffffffffff021916908373ffffffffffffffffffffffffffffffffffffffff16021790555060018060008060009054906101000a900473ffffffffffffffffffffffffffffffffffffffff1673ffffffffffffffffffffffffffffffffffffffff1673ffffffffffffffffffffffffffffffffffffffff1681526020019081526020016000206000018190555060005b81518110156200017657600260405180604001604052808484815181106200010f576200010e62000393565b5b60200260200101518152602001600081525090806001815401808255809150506001900390600052602060002090600202016000909190919091506000820151816000015560208201518160010155505080806200016d90620003fb565b915050620000e2565b505062000448565b6000604051905090565b600080fd5b600080fd5b600080fd5b6000601f19601f8301169050919050565b7f4e487b7100000000000000000000000000000000000000000000000000000000600052604160045260246000fd5b620001e28262000197565b810181811067ffffffffffffffff82111715620002045762000203620001a8565b5b80604052505050565b6000620002196200017e565b9050620002278282620001d7565b919050565b600067ffffffffffffffff8211156200024a5762000249620001a8565b5b602082029050602081019050919050565b600080fd5b6000819050919050565b620002758162000260565b81146200028157600080fd5b50565b60008151905062000295816200026a565b92915050565b6000620002b2620002ac846200022c565b6200020d565b90508083825260208201905060208402830185811115620002d857620002d76200025b565b5b835b81811015620003055780620002f0888262000284565b845260208401935050602081019050620002da565b5050509392505050565b600082601f83011262000327576200032662000192565b5b8151620003398482602086016200029b565b91505092915050565b6000602082840312156200035b576200035a62000188565b5b600082015167ffffffffffffffff8111156200037c576200037b6200018d565b5b6200038a848285016200030f565b91505092915050565b7f4e487b7100000000000000000000000000000000000000000000000000000000600052603260045260246000fd5b7f4e487b7100000000000000000000000000000000000000000000000000000000600052601160045260246000fd5b6000819050919050565b60006200040882620003f1565b91507fffffffffffffffffffffffffffffffffffffffffffffffffffffffffffffffff82036200043d576200043c620003c2565b5b600182019050919050565b610dd680620004586000396000f3fe608060405234801561001057600080fd5b506004361061007d5760003560e01c80635c19a95c1161005b5780635c19a95c146100ed578063609ff1bd146101095780639e7b8d6114610127578063a3ec138d146101435761007d565b80630121b93f14610082578063013cf08b1461009e5780632e4176cf146100cf575b600080fd5b61009c6004803603810190610097919061090f565b610176565b005b6100b860048036038101906100b3919061090f565b6102c8565b6040516100c6929190610964565b60405180910390f35b6100d76102fc565b6040516100e491906109ce565b60405180910390f35b61010760048036038101906101029190610a15565b610320565b005b610111610638565b60405161011e9190610a42565b60405180910390f35b610141600480360381019061013c9190610a15565b6106c0565b005b61015d60048036038101906101589190610a15565b610877565b60405161016d9493929190610a78565b60405180910390f35b6000600160003373ffffffffffffffffffffffffffffffffffffffff1673ffffffffffffffffffffffffffffffffffffffff168152602001908152602001600020604051806080016040529081600082015481526020016001820160009054906101000a900460ff161515151581526020016001820160019054906101000a900473ffffffffffffffffffffffffffffffffffffffff1673ffffffffffffffffffffffffffffffffffffffff1673ffffffffffffffffffffffffffffffffffffffff168152602001600282015481525050905080602001511561025857600080fd5b600081600001510361026957600080fd5b60018160200190151590811515815250508181606001818152505080600001516002838154811061029d5761029c610abd565b5b906000526020600020906002020160010160008282546102bd9190610b1b565b925050819055505050565b600281815481106102d857600080fd5b90600052602060002090600202016000915090508060000154908060010154905082565b60008054906101000a900473ffffffffffffffffffffffffffffffffffffffff1681565b6000600160003373ffffffffffffffffffffffffffffffffffffffff1673ffffffffffffffffffffffffffffffffffffffff168152602001908152602001600020604051806080016040529081600082015481526020016001820160009054906101000a900460ff161515151581526020016001820160019054906101000a900473ffffffffffffffffffffffffffffffffffffffff1673ffffffffffffffffffffffffffffffffffffffff1673ffffffffffffffffffffffffffffffffffffffff1681526020016002820154815250509050806020015115610438576040517f08c379a000000000000000000000000000000000000000000000000000000000815260040161042f90610bce565b60405180910390fd5b3373ffffffffffffffffffffffffffffffffffffffff168273ffffffffffffffffffffffffffffffffffffffff16036104a6576040517f08c379a000000000000000000000000000000000000000000000000000000000815260040161049d90610c3a565b60405180910390fd5b600181602001901515908115158152505081816040019073ffffffffffffffffffffffffffffffffffffffff16908173ffffffffffffffffffffffffffffffffffffffff16815250506000600160008473ffffffffffffffffffffffffffffffffffffffff1673ffffffffffffffffffffffffffffffffffffffff168152602001908152602001600020604051806080016040529081600082015481526020016001820160009054906101000a900460ff161515151581526020016001820160019054906101000a900473ffffffffffffffffffffffffffffffffffffffff1673ffffffffffffffffffffffffffffffffffffffff1673ffffffffffffffffffffffffffffffffffffffff168152602001600282015481525050905080602001511561061557816000015160028260600151815481106105e9576105e8610abd565b5b906000526020600020906002020160010160008282546106099190610b1b565b92505081905550610633565b81600001518160000181815161062b9190610b1b565b915081815250505b505050565b6000806000905060005b6002805490508110156106bb57816002828154811061066457610663610abd565b5b90600052602060002090600202016001015411156106a857600281815481106106905761068f610abd565b5b90600052602060002090600202016001015491508092505b80806106b390610c5a565b915050610642565b505090565b60008054906101000a900473ffffffffffffffffffffffffffffffffffffffff1673ffffffffffffffffffffffffffffffffffffffff163373ffffffffffffffffffffffffffffffffffffffff161461074e576040517f08c379a000000000000000000000000000000000000000000000000000000000815260040161074590610d14565b60405180910390fd5b600160008273ffffffffffffffffffffffffffffffffffffffff1673ffffffffffffffffffffffffffffffffffffffff16815260200190815260200160002060010160009054906101000a900460ff16156107de576040517f08c379a00000000000000000000000000000000000000000000000000000000081526004016107d590610d80565b60405180910390fd5b6000600160008373ffffffffffffffffffffffffffffffffffffffff1673ffffffffffffffffffffffffffffffffffffffff168152602001908152602001600020600001541461082d57600080fd5b60018060008373ffffffffffffffffffffffffffffffffffffffff1673ffffffffffffffffffffffffffffffffffffffff1681526020019081526020016000206000018190555050565b60016020528060005260406000206000915090508060000154908060010160009054906101000a900460ff16908060010160019054906101000a900473ffffffffffffffffffffffffffffffffffffffff16908060020154905084565b600080fd5b6000819050919050565b6108ec816108d9565b81146108f757600080fd5b50565b600081359050610909816108e3565b92915050565b600060208284031215610925576109246108d4565b5b6000610933848285016108fa565b91505092915050565b6000819050919050565b61094f8161093c565b82525050565b61095e816108d9565b82525050565b60006040820190506109796000830185610946565b6109866020830184610955565b9392505050565b600073ffffffffffffffffffffffffffffffffffffffff82169050919050565b60006109b88261098d565b9050919050565b6109c8816109ad565b82525050565b60006020820190506109e360008301846109bf565b92915050565b6109f2816109ad565b81146109fd57600080fd5b50565b600081359050610a0f816109e9565b92915050565b600060208284031215610a2b57610a2a6108d4565b5b6000610a3984828501610a00565b91505092915050565b6000602082019050610a576000830184610955565b92915050565b60008115159050919050565b610a7281610a5d565b82525050565b6000608082019050610a8d6000830187610955565b610a9a6020830186610a69565b610aa760408301856109bf565b610ab46060830184610955565b95945050505050565b7f4e487b7100000000000000000000000000000000000000000000000000000000600052603260045260246000fd5b7f4e487b7100000000000000000000000000000000000000000000000000000000600052601160045260246000fd5b6000610b26826108d9565b9150610b31836108d9565b9250827fffffffffffffffffffffffffffffffffffffffffffffffffffffffffffffffff03821115610b6657610b65610aec565b5b828201905092915050565b600082825260208201905092915050565b7f4e6f7420616c726561647920766f746564000000000000000000000000000000600082015250565b6000610bb8601183610b71565b9150610bc382610b82565b602082019050919050565b60006020820190508181036000830152610be781610bab565b9050919050565b7f43616e742064656c65676174652073656c660000000000000000000000000000600082015250565b6000610c24601283610b71565b9150610c2f82610bee565b602082019050919050565b60006020820190508181036000830152610c5381610c17565b9050919050565b6000610c65826108d9565b91507fffffffffffffffffffffffffffffffffffffffffffffffffffffffffffffffff8203610c9757610c96610aec565b5b600182019050919050565b7f4f6e6c79206368616972706572736f6e2063616e2063616c6c2074686973206660008201527f756e6374696f6e00000000000000000000000000000000000000000000000000602082015250565b6000610cfe602783610b71565b9150610d0982610ca2565b604082019050919050565b60006020820190508181036000830152610d2d81610cf1565b9050919050565b7f416c726561647920566f7465642c2043616e6e6f7420766f746520616761696e600082015250565b6000610d6a602083610b71565b9150610d7582610d34565b602082019050919050565b60006020820190508181036000830152610d9981610d5d565b905091905056fea26469706673582212201bc46d4d24f705b2a02d0d2b09d9a38e8fd37422c8922ef8f951f9b3f4a7b07864736f6c634300080e0033",
  "immutableReferences": {},
  "source": "// SPDX-License-Identifier: MIT\npragma solidity >=0.4.22 <0.9.0;\n\ncontract ballot {\n\n    struct Voter {\n        uint weight;\n        bool voted;\n        address delegate;\n        uint vote;\n    }\n\n    struct Proposal{\n        bytes32 name;\n        uint voteCount;\n    }\n\n    modifier onlyChairperson{\n        require(msg.sender==chairperson, \"Only chairperson can call this function\");\n        _;\n    }\n\n    address public chairperson;\n\n    mapping(address=>Voter) public voters;\n\n    Proposal[] public proposals;\n\n    constructor(bytes32[] memory proposalNames) {\n        chairperson = msg.sender;\n        voters[chairperson].weight=1;\n\n        for(uint i=0;i<proposalNames.length;i++){\n            proposals.push(Proposal({\n                name: proposalNames[i],\n                voteCount: 0\n            }));\n        }\n    }\n\n    function giveRightToVote(address voter) onlyChairperson public {\n        require(!voters[voter].voted,\"Already Voted, Cannot vote again\");\n        require(voters[voter].weight==0);\n\n        voters[voter].weight=1;\n    }\n\n    function delegate(address to) public{\n        Voter memory sender = voters[msg.sender];\n        require(!sender.voted,\"Not already voted\");\n        require(to!=msg.sender,\"Cant delegate self\");\n\n        sender.voted=true;\n        sender.delegate=to;\n\n        Voter memory _delegate = voters[to];\n        if(_delegate.voted){\n            proposals[_delegate.vote].voteCount+=sender.weight;\n        }\n        else{\n            _delegate.weight+=sender.weight;\n        }\n    }\n\n    function vote(uint proposal) public {\n        Voter memory sender = voters[msg.sender];\n        require(!sender.voted);\n        require(sender.weight!=0);\n\n        sender.voted=true;\n        sender.vote=proposal;\n\n        proposals[proposal].voteCount+=sender.weight;\n    } \n\n    function winningProposal() public view returns(uint winner){\n        uint max=0;\n        for(uint i=0;i<proposals.length;i++){\n            if(proposals[i].voteCount>max){\n                max=proposals[i].voteCount;\n                winner=i;\n            }\n        }\n    }\n\n}",
  "sourcePath": "/Users/karan/Documents/ballot/contracts/ballot.sol",
  "compiler": {
    "name": "solc",
    "version": "0.8.14+commit.80d49f37.Emscripten.clang"
  },
  "schemaVersion": "3.4.7",
  "updatedAt": "2022-10-29T13:37:42.084Z",
  "devdoc": {
    "kind": "dev",
    "methods": {},
    "version": 1
  },
  "userdoc": {
    "kind": "user",
    "methods": {},
    "version": 1
  }
}